:1000000009C019C018C017C016C015C014C013C04D
:1000100012C011C011241FBECFE9CDBF11E0A0E670
:10002000B0E0EEE5F0E002C005900D92AA3AB1070B
:10003000D9F702D012C0E4CF88E087BB18BA48E0F5
:100040002EE130E088B3842788BB80E197E2F90194
:0E0050003197F1F70197D9F7F5CFF894FFCF6C
:10005E0000D335CC77B69654A8E6CF9ED79AE73B19
:10006E00FBC008FF331B4F1251345F076B1299F41C
:10007E009ED3D800E100F6051C6F3EF646FF615E8A
:10008E00650171278342B217F13014CB337E734A68
:10009E00865B95829E0BA606DC0503320FB41BA170
:1000AE003DD378BC95E5B85FE50923053F004100D7
:1000BE005B0371ED88DA98ECB619E3B4EE2200D347
:1000CE0035CC77B69654A8E6CF9ED79AE73BFBC0C1
:1000DE0008FF331B4F1251345F076B1299F49ED3F6
:1000EE00D800E100F6051C6F3EF646FF615E650125
:1000FE0071278342B217F13014CB337E734A865B7D
:10010E0095829E0BA606DC0503320FB41BA13DD3D0
:10011E0078BC95E5B85FE50923053F0041005B0318
:10012E0071ED88DA98ECB619E3B4EE2200D335CC33
:10013E0077B69654A8E6CF9ED79AE73BFBC008FF4A
:10014E00331B4F1251345F076B1299F49ED3D800B4
:10015E00E100F6051C6F3EF646FF615E65017127F4
:10016E008342B217F13014CB337E734A865B95828D
:10017E009E0BA606DC0503320FB41BA13DD378BC43
:10018E0095E5B85FE50923053F0041005B0371ED7E
:0A019E0088DA98ECB619E3B4EE22FB
:00000001FF
