:1000000095C0ADC0ACC0AEC1AAC0A9C0A8C0A7C0B1
:10001000A6C0A5C01402000A01000C0A0A0F0000C5
:100020000FFF01000600050CFF0A0014000101018A
:1000300001010101010101010101010101010101B0
:100040000101010101010101020202020202020298
:100050000203030303030303040404040405050566
:100060000506060606070707070808080909090A1A
:100070000A0A0B0B0B0C0C0C0D0D0E0E0F0F0F10B4
:10008000101111121213131414151616171718182D
:10009000191A1A1B1C1C1D1E1E1F2020212223237F
:1000A000242526262728292A2B2B2C2D2E2F3031AC
:1000B0003233343535363738393A3C3D3E3F4041AE
:1000C000424344454648494A4B4C4E4F5051535485
:1000D000555658595A5C5D5E606163646567686A2D
:1000E0006B6D6E707173747678797B7C7E808183A2
:1000F0008586888A8B8D8F91929496989A9C9D9FE5
:10010000A1A3A5A7A9ABADAFB1B3B5B7B9BBBDBFEF
:10011000C1C3C6C8CACCCED0D3D5D7D9DCDEE0E3C4
:10012000E5E7EAECEEF1F3F6F8FBFDFF11241FBE64
:10013000CFE9CDBF11E0A0E6B0E0E6E5F4E102C012
:1001400005900D92AE36B107D9F711E0AEE6B1E0F9
:1001500001C01D92A637B107E1F77ED27AC950CF10
:10016000FC0194818581981718F4891B818302C052
:10017000981B918396818781981720F4891B82832D
:1001800081E003C0981B92838FEF8383818190E08D
:100190002281821B9109918780870895FC01208527
:1001A0003185B901660F771F8281482F50E088277B
:1001B0009927841B950B861797073CF4241B350B56
:1001C0003187208784818F5F84838181282F30E06D
:1001D0006217730754F480859185820F931F91876E
:1001E000808786819381890F86830895EF92FF929D
:1001F0000F931F937C01DC011F960C911F9714969F
:100200001C92149710E054968D919C915597FC0187
:10021000E00FF11FE4911696EC9316970F5F1F4FB6
:10022000FC01E00FF11FE4911596EC9315970F5F19
:100230001F4F800F911FFC01849117968C93C7016B
:100240008FDF81E0D7011E968C931E9750961C93EA
:100250000E931F971D961C921F910F91FF90EF9088
:100260000895CF93DF93EC018C818A878E818B87F1
:100270000DC0CE0193DF9C818D81981739F49E814A
:100280008F81981719F481E08D8704C09A858C813D
:10029000981779F38D858823A1F48E852B85882383
:1002A00019F01E862C8707C08E8190E0820F911D69
:1002B000959587958C87E881F0E08C85E259FE4F13
:1002C000808390E08D85882309F491E0892FDF9168
:1002D000CF910895CF93DF93EC01898980FF0BC004
:1002E0002F8538898A899B892817390720F0188A31
:1002F0001F86CE017BDF2F8538898A899B89281745
:10030000390720F081E007C0CE0170DFCE01A9DF00
:100310008823D1F380E0DF91CF910895FF920F936E
:100320001F93CF93DF93F62EEC0110E000E005C0A1
:10033000CE01D0DF080F1F5F66961F15C8F380E05F
:100340000F1509F481E0DF91CF911F910F91FF907C
:100350000895FC0180819485EEE6F1E0E80FF11D3F
:10036000908308951F920F920FB60F9211242F932E
:100370003F934F936F937F938F939F93AF93BF93CD
:10038000EF93FF934091740130E061E070E026C08C
:10039000832F90E0FC01E259FE4FE081F0E0E45D44
:1003A000FF4FE491DC01A05ABF4F4E1760F028B315
:1003B000CB010C9002C0880F991F0A94E2F7809538
:1003C000822388BB0AC028B3CB010C9002C0880FDF
:1003D000991F0A94E2F7282B28BB3F5F8091750193
:1003E0003817B0F24F5F40937401FF91EF91BF91C6
:1003F000AF919F918F917F916F914F913F912F91ED
:100400000F900FBE0F901F9018952F923F924F9212
:100410005F926F927F928F929F92AF92BF92CF9294
:10042000DF92EF92FF920F931F93DF93CF9300D051
:10043000CDB7DEB72DB73EB73A832983E4E1F0E0CC
:10044000E4903196E491E09375018091750190E01C
:1004500066E170E0B5D7EDB7FEB7E81BF90B0FB654
:10046000F894FEBF0FBEEDBF0DB71EB70F5F1F4F55
:10047000FF2442E0A42EB12C5EC08F2D90E066E1F7
:1004800070E09ED7F801E80FF91FF0828F2D90E001
:1004900066E170E095D7F801E80FF91F108A17861A
:1004A000F501EC5EFF4F3491C5018B5E9F4FFC015F
:1004B00024918F2D90E066E170E082D7D801A80FDB
:1004C000B91FD32ECC24822F90E08C299D295396DE
:1004D0009C938E935297F501EA5EFF4F24918F2DE6
:1004E00090E066E170E06CD7F801E80FF91F218B0E
:1004F0008F2D90E066E170E063D7F801E80FF91FF7
:10050000C501895E9F4F958B848B8F2D90E066E1AE
:1005100070E056D7800F911F69DE8F2D90E066E165
:1005200070E04ED7F801E80FF91F8289938903968E
:10053000A80EB91EF39480917501F81608F49DCFAA
:1005400018016E2C77248824992430EF432E512CE7
:1005500060C0C401B301CAD45B016C012DEC3CEC5A
:100560004CE450E455D27B018C0120E030E040E8BF
:100570005FE340D4882314F461E049C0C801B701A7
:1005800020E030E04FE753E4DFD318160CF03CC016
:10059000C601B50120E030E04AE754E42ED35B0108
:1005A0006C0120E030E046E155E432D27B018C0161
:1005B00020E030E040E85FE31DD488231CF461E0D4
:1005C00070E01EC0C801B70120E03FEF4FE757E4DD
:1005D000BBD3181694F4C601B50120E030E040E228
:1005E00051E416D251D005C0C2010197F1F7615014
:1005F000704061157105C1F70CC0C801B70144D046
:10060000CB010197F1F705C0C801B7013DD06A954C
:10061000F1F760917501C10181DE882309F499CF5A
:1006200029813A810FB6F8943EBF0FBE2DBF0F90BF
:100630000F90CF91DF911F910F91FF90EF90DF907E
:10064000CF90BF90AF909F908F907F906F905F9072
:100650004F903F902F90089517BA85B7877E80619D
:1006600085BF8FEF87BB83B7887F816083BF89B7E2
:10067000826089BF7894C9DE85B7806285BF88951E
:1006800085B78F7D85BFF8CFEF92FF920F931F93B1
:100690007B018C0120E030E040E05FE480D38823E0
:1006A0007CF0C801B70120E030E040E05FE45ED1BB
:1006B000CCD39B01AC01205030404040504805C095
:1006C000C801B701C2D39B01AC01B901CA011F9196
:1006D0000F91FF90EF900895A0E0B0E0E1E7F3E024
:1006E00081C6DC012B01FA019C91923008F439C1DA
:1006F000EB018881823008F433C1943069F484308E
:1007000009F02FC111969C9111978981981709F4CE
:1007100028C1A6E6B0E025C1843009F421C18230A9
:10072000A9F4923009F01DC19A01AD0188E0EA01F7
:100730000990AE01E90109929E018150C1F7E201E1
:10074000898111969C918923818308C1923009F493
:1007500007C112962D903C901397EB018A819B81E3
:100760001496AD90BD90CD90DC901797EC80FD80F5
:100770000E811F819101281B390BB90137FF04C07D
:1007800066277727621B730B603271050CF061C01E
:10079000121613066CF537014801062E04C0969414
:1007A0008794779467940A94D2F721E030E040E090
:1007B00050E004C0220F331F441F551F6A95D2F723
:1007C00021503040404050402E213F2140235123B2
:1007D000211531054105510521F021E030E040E0CF
:1007E00050E079018A01E628F728082919293CC038
:1007F000232BD1F1260E371E35014601062E04C0EB
:1008000096948794779467940A94D2F721E030E025
:1008100040E050E004C0220F331F441F551F6A956B
:10082000D2F721503040404050402A213B214C21FA
:100830005D21211531054105510521F021E030E010
:1008400040E050E059016A01A628B728C828D928F5
:100850000BC0821593052CF01C01AA24BB24650152
:1008600003C0EE24FF24870111969C91D2011196BA
:100870008C91981709F445C0992339F0A801970184
:100880002A193B094C095D0906C0A60195012E19DC
:100890003F09400B510B57FD08C011823382228261
:1008A00024833583468357831DC081E0818333824F
:1008B000228288279927DC01821B930BA40BB50B9E
:1008C00084839583A683B7830DC0220F331F441FF3
:1008D000551F2483358346835783828193810197F3
:1008E000938382832481358146815781DA01C9014E
:1008F0000197A109B1098F5F9F4FAF4FBF4328F305
:100900000BC0918333822282EA0CFB1C0C1D1D1D3F
:10091000E482F5820683178383E080832481358116
:100920004681578157FF1AC0C901AA2797FDA09594
:10093000BA2F81709070A070B0705695479537951A
:100940002795822B932BA42BB52B84839583A68389
:10095000B78382819381019693838283DF0101C0F3
:10096000D201CD01CDB7DEB7E2E158C5A0E2B0E0DB
:10097000EBEBF4E043C569837A838B839C832D83FF
:100980003E834F835887E9E0EE2EF12CEC0EFD1EDE
:10099000CE010196B70143D48E010F5E1F4FCE01E9
:1009A0000596B8013CD48A8991E089278A8BC701D2
:1009B000B801AE01475E5F4F8FDE5CD3A096E6E0E4
:1009C00039C5A0E2B0E0E6EEF4E018C569837A83A9
:1009D0008B839C832D833E834F835887F9E0EF2ED2
:1009E000F12CEC0EFD1ECE010196B70118D48E013C
:1009F0000F5E1F4FCE010596B80111D4C701B80193
:100A0000AE01475E5F4F68DE35D3A096E6E012C5C3
:100A1000A0E2B0E0EDE0F5E0E5C469837A838B8382
:100A20009C832D833E834F835887CE010196BE0160
:100A3000675F7F4FF4D3CE010596BE016F5E7F4F97
:100A4000EED39985923088F089898230C8F094304D
:100A500019F4823051F404C0843029F4923081F4C6
:100A600086E690E0C6C0923049F420E09A858A89F3
:100A7000981321E02A87CE010996BBC0823049F441
:100A800020E09A858A89981321E02A8BCE0141962D
:100A9000B0C02D843E844F8458886D887E888F88AE
:100AA000988CEE24FF248701AA24BB24650140E032
:100AB00050E060E070E0E0E0F0E0C1018170907033
:100AC000892BE9F0E60CF71C081D191D9A01AB01F2
:100AD0002A0D3B1D4C1D5D1D80E090E0A0E0B0E0C4
:100AE000E614F7040805190520F481E090E0A0E081
:100AF000B0E0BA01A901480F591F6A1F7B1FAA0C59
:100B0000BB1CCC1CDD1C97FE08C081E090E0A0E07F
:100B1000B0E0A82AB92ACA2ADB2A3196E032F105C8
:100B200049F0660C771C881C991C5694479437949E
:100B30002794C3CFFA85EA892B893C898B859C85CC
:100B4000280F391F2E5F3F4F17C0CA018170907068
:100B5000892B61F016950795F794E79480E090E073
:100B6000A0E0B0E8E82AF92A0A2B1B2B76956795B6
:100B7000579547952F5F3F4F77FDE7CF0CC0440F48
:100B8000551F661F771F17FD4160EE0CFF1C001FED
:100B9000111F21503040403090E0590790E0690724
:100BA00090E4790760F32B8F3C8FDB01CA018F77CC
:100BB0009070A070B07080349105A105B10561F40A
:100BC00047FD0AC0E114F1040105110529F0405C5C
:100BD0005F4F6F4F7F4F40781A8EFE1711F081E004
:100BE0008A8F4D8F5E8F6F8F78A383E0898FCE01C0
:100BF000499640D2A096E2E111C4A8E1B0E0E2E05B
:100C0000F6E0F8C369837A838B839C832D833E83CC
:100C10004F835887B9E0EB2EF12CEC0EFD1ECE0170
:100C20000196B701FCD28E010F5E1F4FCE010596D3
:100C3000B801F5D22985223008F47EC039893230D6
:100C400010F4B8017CC08A859A8989278A87243064
:100C500011F0223031F4231709F06EC066E670E01F
:100C60006EC0343039F41D861E861F86188A1C8695
:100C70001B8604C0323021F484E08987B7015FC04D
:100C80002B853C858B899C89281B390B3C872B87BE
:100C9000ED84FE840F851889AD88BE88CF88D88CF6
:100CA000EA14FB040C051D0540F4EE0CFF1C001FAC
:100CB000111F215030403C872B8720E030E040E07E
:100CC00050E080E090E0A0E0B0E460E070E0EA1482
:100CD000FB040C051D0540F0282B392B4A2B5B2B00
:100CE000EA18FB080C091D09B695A79597958795F5
:100CF000EE0CFF1C001F111F6F5F7F4F6F317105DE
:100D000031F7DA01C9018F779070A070B07080342C
:100D10009105A105B10561F427FD0AC0E114F104B4
:100D20000105110529F0205C3F4F4F4F5F4F2078A0
:100D30002D873E874F87588BBE01675F7F4FCB0162
:100D400099D16896EAE072C3A8E1B0E0E9EAF6E07A
:100D500055C369837A838B839C832D833E834F8322
:100D6000588789E0E82EF12CEC0EFD1ECE0101968D
:100D7000B70155D28E010F5E1F4FCE010596B80107
:100D80004ED28985823038F08989823020F0C701BF
:100D9000B801BDD201C08FEF6896E6E04BC3A8E171
:100DA000B0E0E4EDF6E02AC369837A838B839C8309
:100DB0002D833E834F83588789E0E82EF12CEC0E7B
:100DC000FD1ECE010196B7012AD28E010F5E1F4F84
:100DD000CE010596B80123D28985823038F0898901
:100DE000823020F0C701B80192D201C08FEF68961F
:100DF000E6E020C3A8E1B0E0EFEFF6E0FFC26983D0
:100E00007A838B839C832D833E834F83588789E02D
:100E1000E82EF12CEC0EFD1ECE010196B701FFD19C
:100E20008E010F5E1F4FCE010596B801F8D189855E
:100E3000823038F08989823020F0C701B80167D24A
:100E400001C081E06896E6E0F5C2ACE0B0E0EAE21D
:100E5000F7E0D8C269837A838B839C83CE010196A5
:100E6000BE016B5F7F4FDBD18D81823061F18230BB
:100E700050F1843021F48E81882351F12EC02F81CE
:100E8000388537FD20C06E812F3131051CF0662377
:100E9000F9F023C08EE190E0821B930B29853A85FF
:100EA0004B855C8504C056954795379527958A955F
:100EB000D2F76623B1F050954095309521953F4F7C
:100EC0004F4F5F4F0EC020E030E040E050E009C0DF
:100ED0002FEF3FEF4FEF5FE704C020E030E040E04E
:100EE00050E8B901CA012C96E2E0A8C2A8E0B0E03F
:100EF000EBE7F7E07FC27B018C016115710581058D
:100F0000910519F482E089835FC083E089838EE1D3
:100F1000C82ED12CDC82CB82ED82FE820F83188713
:100F2000C801B70158D0FC013197F7FF3BC0222719
:100F300033272E1B3F0B57016801022E04C0D694A5
:100F4000C794B794A7940A94D2F740E050E060E0C9
:100F500070E081E090E0A0E0B0E004C0880F991F4D
:100F6000AA1FBB1F2A95D2F70197A109B1098E21AB
:100F70009F21A023B1230097A105B10521F041E0F5
:100F800050E060E070E04A295B296C297D294D839F
:100F90005E836F8378878EE190E08E1B9F0B9C832E
:100FA0008B8312C0309781F00E2E04C0EE0CFF1C14
:100FB000001F111F0A94D2F7ED82FE820F8318875B
:100FC000CE1ADF0ADC82CB821A82CE01019652D081
:100FD0002896EAE02BC2EF92FF920F931F937B01BA
:100FE0008C0180E0E81680E0F80681E0080780E0E8
:100FF000180788F48FEFE816F1040105110531F0A8
:1010000028F088E090E0A0E0B0E017C080E090E039
:10101000A0E0B0E012C080E0E81680E0F80680E0D2
:10102000080781E0180728F088E190E0A0E0B0E030
:1010300004C080E190E0A0E0B0E020E230E040E0D9
:1010400050E0281B390B4A0B5B0B04C01695079523
:10105000F794E7948A95D2F7F701E259FF4F808120
:10106000281B310941095109C9011F910F91FF90B6
:10107000EF900895DF92EF92FF920F931F93FC0180
:10108000E480F58006811781D1808081823048F428
:1010900080E090E0A0E1B0E0E82AF92A0A2B1B2BBF
:1010A000A5C0843009F49FC0823021F4EE24FF24CF
:1010B000870105C0E114F1040105110519F4E0E010
:1010C000F0E096C0628173819FEF623879070CF07F
:1010D0005BC022E83FEF261B370B2A3131052CF08D
:1010E00020E030E040E050E02AC0B801A701022E25
:1010F00004C076956795579547950A94D2F781E095
:1011000090E0A0E0B0E004C0880F991FAA1FBB1FA9
:101110002A95D2F70197A109B1098E219F21A02319
:10112000B1230097A105B10521F081E090E0A0E096
:10113000B0E09A01AB01282B392B4A2B5B2BDA014B
:10114000C9018F779070A070B07080349105A105AF
:10115000B10539F427FF09C0205C3F4F4F4F5F4F67
:1011600004C0215C3F4F4F4F5F4FE0E0F0E0203084
:10117000A0E03A07A0E04A07A0E45A0710F0E1E037
:10118000F0E079018A0127C06038710564F5FB0140
:10119000E158FF4FD801C7018F779070A070B070F1
:1011A00080349105A105B10539F4E7FE0DC080E456
:1011B00090E0A0E0B0E004C08FE390E0A0E0B0E0F9
:1011C000E80EF91E0A1F1B1F17FF05C0169507958D
:1011D000F794E794319687E016950795F794E7948E
:1011E0008A95D1F705C0EE24FF248701EFEFF0E0E8
:1011F0006E2F679566276795902F9F77D794DD248C
:10120000D7948E2F8695492F462B582F5D29B701ED
:10121000CA011F910F91FF90EF90DF900895FC019C
:10122000DB01408151812281622F6F7770E0221FA4
:101230002227221F9381892F880F822B282F30E0AD
:10124000991F9927991F11969C9311972115310584
:10125000A9F5411551056105710511F482E037C00A
:1012600082E89FEF13969C938E9312979A01AB019D
:1012700067E0220F331F441F551F6A95D1F783E0A3
:101280008C930DC0220F331F441F551F12968D9152
:101290009C911397019713969C938E9312972030ED
:1012A00080E0380780E0480780E4580758F3149638
:1012B0002D933D934D935C93179708952F3F3105E0
:1012C00079F4411551056105710519F484E08C9399
:1012D000089564FF03C081E08C9312C01C9210C07B
:1012E0002F57304013963C932E93129783E08C93A4
:1012F00087E0440F551F661F771F8A95D1F77064EA
:1013000014964D935D936D937C93179708951F9357
:10131000DC01FB019C91923008F447C0808182304F
:1013200008F443C0943051F411961C91843099F51F
:101330008181682F70E0611B71093FC0843021F00A
:10134000923031F48230B9F18181882389F12DC046
:1013500011961C9111978230F1F081811817D9F400
:1013600012962D913C911397828193818217930756
:1013700094F028173907BCF014968D919D910D902B
:10138000BC91A02D248135814681578128173907CA
:101390004A075B0718F4112341F00AC0821793072C
:1013A000A407B50740F4112319F061E070E005C00F
:1013B0006FEF7FEF02C060E070E0CB011F910895F6
:1013C0005527002480FF02C0060E571F660F771FA7
:1013D0006115710521F096958795009799F7952FDE
:1013E000802D08952F923F924F925F926F927F923D
:1013F0008F929F92AF92BF92CF92DF92EF92FF9225
:101400000F931F93CF93DF93CDB7DEB7CA1BDB0BD0
:101410000FB6F894DEBF0FBECDBF09942A88398875
:1014200048885F846E847D848C849B84AA84B9847C
:10143000C884DF80EE80FD800C811B81AA81B98188
:10144000CE0FD11D0FB6F894DEBF0FBECDBFED019C
:061450000895F894FFCF9F
:101456000001020304050000000000000000000176
:10146600020203030303040404040404040405053C
:101476000505050505050505050505050505060614
:1014860006060606060606060606060606060606F6
:1014960006060606060606060606060606060707E4
:1014A60007070707070707070707070707070707C6
:1014B60007070707070707070707070707070707B6
:1014C60007070707070707070707070707070707A6
:1014D6000707070707070707070707070707080894
:1014E6000808080808080808080808080808080876
:1014F6000808080808080808080808080808080866
:101506000808080808080808080808080808080855
:101516000808080808080808080808080808080845
:101526000808080808080808080808080808080835
:101536000808080808080808080808080808080825
:101546000808080808080808080808080808080815
:0E155600080808080808080808080808080817
:00000001FF
